:020000040800F2
:10000000008001205D060008AD060008AD0600086E
:10001000AD060008AD060008AD06000800000000AF
:10002000000000000000000000000000AD06000815
:100030000000000000000000AD0600084D060008AA
:10004000AD060008AD060008AD060008AD060008C4
:10005000AD060008AD060008AD060008AD060008B4
:10006000AD060008AD060008AD060008AD060008A4
:10007000AD060008AD060008AD060008AD06000894
:10008000AD060008AD060008AD060008AD06000884
:10009000AD060008AD060008AD060008AD06000874
:1000A000AD060008AD060008AD060008AD06000864
:1000B000AD060008AD060008AD060008AD06000854
:1000C000AD060008AD060008AD060008AD06000844
:1000D000AD060008AD060008F9050008AD060008E9
:1000E00079050008AD060008AD060008AD06000859
:1000F000AD060008AD060008AD060008AD06000814
:10010000AD060008AD060008AD060008AD06000803
:10011000AD060008AD060008AD060008AD060008F3
:10012000AD060008AD060008AD060008AD060008E3
:10013000AD060008AD060008AD060008AD060008D3
:10014000AD060008AD060008AD060008AD060008C3
:10015000AD060008AD060008AD060008AD060008B3
:10016000AD060008AD060008AD060008AD060008A3
:10017000AD060008AD060008AD060008AD06000893
:04018000AD060008C0
:1001840010B5054C237833B9044B13B10448AFF3CD
:1001940000800123237010BD040000200000000033
:1001A400B006000808B5034B1BB103490348AFF37D
:1001B400008008BD0000000008000020B006000810
:1001C40070B50D4D0D4C641BA4100026A64209D138
:1001D4000B4D0C4C00F06AFA641BA4100026A642D6
:1001E40005D170BD55F8043B98470136EEE755F844
:1001F400043B98470136F2E76807000868070008DF
:10020400680700087007000870477047024B13B175
:10021400024800F005B870470000000031020008F1
:10022400002301461A46184600F014B838B5074DA5
:10023400074C641BA4101CB9BDE8384000F03CBA5C
:10024400013C55F824309847F5E700BF70070008D3
:10025400740700082DE9F047DFF874A00646DAF8C1
:10026400000098460F469146FFF7CEFF164B1C68D8
:100274000CB9164C1C606568DAF800001F2D05DD0A
:10028400FFF7C3FF4FF0FF30BDE8F0879EB104EBEA
:1002940085010122C1F88890D4F88831AA4013431B
:1002A400C4F88831022EC1F8088102BFD4F88C3119
:1002B4001343C4F88C316B1C0235636044F8257019
:1002C400FFF7A3FF0020DFE7240000202800002020
:1002D4000000002008B50A4B1B78012B00D008BD94
:1002E40000F0ACF9074B1B68C01A41F287339842FF
:1002F400F5D9002000F0FEF8014B00221A70EEE759
:10030400BC010020B801002008B5012806D002284D
:1003140012D04F281AD0432826D008BD174800F021
:1003240051F9012000F0E6F8154B01221A7000F093
:1003340085F9144B1860F0E7134800F043F90120E5
:1003440000F0D8F80E4B02221A70E6E70F4800F0CE
:1003540039F9012000F0CEF8094B01221A7000F09F
:100364006DF9084B1860D8E7094800F02BF9002014
:1003740000F0C0F8024B00221A70CEE7C80600084D
:10038400BC010020B8010020DC060008F0060008CB
:100394000C07000838B500F047F900F06DF800F0DC
:1003A400F9F8154800F00EF9002414E000F046F9BD
:1003B400044600F0AEF814E0104800F003F92846B3
:1003C400FFF7A2FF12E00E4800F0FCF82846FFF702
:1003D4009BFFFFF77FFF00F031F9031BB3F5FA7FB2
:1003E400E4D200F09DF805460028E5D100F0FAF8C3
:1003F40005460028E7D1ECE7280700084007000875
:10040400540700081B4AD36C43F00103D3644FF034
:1004140090431A6822F030021A601A6842F02002EF
:100424001A601A6822F0C0021A601A6842F0800248
:100434001A601A6A22F470621A621A6A42F4E0625A
:100444001A621A6A22F470421A621A6A42F4E04288
:100454001A629A6842F030029A609A6842F0C002C6
:100464009A60DA6822F03002DA60DA6822F0C002B8
:10047400DA607047001002401C4BDA6C42F005024F
:10048400DA644FF09042116821F440611160116800
:1004940041F48061116016490A6822F040620A60E2
:1004A4001A6E42F001021A66A3F588335A6922F0E3
:1004B400F0025A615A6942F020025A6103F58063DE
:1004C400DA6842F40052DA609A6822F400529A60C0
:1004D4001A6842F400521A604FF0E022D2F8043154
:1004E40043F48073C2F80431704700BF0010024027
:1004F4000008004830B14FF09042536943F01003B4
:10050400536170474FF09042536923F010035361D5
:1005140070474FF09042536983F020035361704752
:10052400024B187800221A70704700BFC4010020E3
:1005340008B500F083F80D4B1B68C01A312800D8A9
:1005440008BD00F07BF8094B1B68C01AB0F5FA7FB0
:1005540007D9074B01221A7000F070F8034B18609A
:10056400EEE7034B02221A70F6E700BFC001002039
:10057400C401002008B5064B5B6913F4005F00D189
:1005840008BD034B4FF400525A61FFF7D1FFF7E760
:100594000004014008B5FFF735FF084A936D43F4A2
:1005A40000339365A2F5E632136843F02003136029
:1005B400034A536843F04003536008BD00100240EF
:1005C40000E100E007E0064BDB6913F0800FFAD08E
:1005D4000130034B9A620278002AF4D1704700BFBD
:1005E40000440040024B187800221A70704700BF84
:1005F400C50100200A4BDB6913F0200F06D0084B1D
:100604005B6ADBB24F2B02D0432B04D07047054BFF
:100614004F221A707047034B43221A70F6E700BF4B
:1006240000440040C50100204FF0E02304221A6179
:1006340040F69F725A6107221A617047014B18688D
:10064400704700BFC8010020024A136801331360D9
:10065400704700BFC80100200D488546AFF30080F5
:100664000C480D490D4A002302E0D458C450043309
:10067400C4188C42F9D30A4A0A4C002301E01360DF
:100684000432A242FBD3FFF79BFDFFF783FEFEE794
:1006940000800120000000200400002074070008EE
:1006A40004000020CC010020FEE70000F8B500BFE4
:1006B400F8BC08BC9E467047F8B500BFF8BC08BC3F
:0406C4009E46704797
:1006C8005072657369C3B36E2073696D706C650D84
:1006D8000A0000005072657369C3B36E20646F62CC
:1006E8006C650D0A00000000436F6D616E646F2039
:1006F800616272697220726563696269646F0D0A6A
:1007080000000000436F6D616E646F206365727254
:10071800617220726563696269646F0D0A00000086
:1007280053797374656D20496E697469616C697A6F
:1007380065640D0A00000000427574746F6E2050E5
:100748007265737365640D0A00000000436F6D6D78
:10075800616E642052656365697665640D0A000000
:0807680011020008A9010008BC
:0407700085010008F7
:040774002000002041
:040000050800065D8C
:00000001FF
